{"abi":[{"type":"constructor","inputs":[],"stateMutability":"payable"},{"type":"function","name":"deposit","inputs":[],"outputs":[],"stateMutability":"payable"},{"type":"function","name":"flashLoan","inputs":[{"name":"_amount","type":"uint256","internalType":"uint256"}],"outputs":[],"stateMutability":"nonpayable"},{"type":"function","name":"withdraw","inputs":[],"outputs":[],"stateMutability":"nonpayable"},{"type":"error","name":"AddressInsufficientBalance","inputs":[{"name":"account","type":"address","internalType":"address"}]},{"type":"error","name":"FailedInnerCall","inputs":[]}],"bytecode":{"object":"0x60806040523467016345785d8a0000146016575f5ffd5b6102b3806100235f395ff3fe608060405260043610610033575f3560e01c80633ccfd60b146100375780639ab603b91461004d578063d0e30db01461006c575b5f5ffd5b348015610042575f5ffd5b5061004b610074565b005b348015610058575f5ffd5b5061004b610067366004610241565b610095565b61004b610184565b335f81815260208190526040812080549190559061009290826101a9565b50565b47818110156100e05760405162461bcd60e51b81526020600482015260126024820152714e6f7420656e6f7567682062616c616e636560701b60448201526064015b60405180910390fd5b336001600160a01b03166361461954836040518263ffffffff1660e01b81526004015f604051808303818588803b158015610119575f5ffd5b505af115801561012b573d5f5f3e3d5ffd5b5050505050804710156101805760405162461bcd60e51b815260206004820152601760248201527f466c6173686c6f616e206e6f742070616964206261636b00000000000000000060448201526064016100d7565b5050565b335f90815260208190526040812080543492906101a2908490610258565b9091555050565b804710156101cc5760405163cd78605960e01b81523060048201526024016100d7565b5f826001600160a01b0316826040515f6040518083038185875af1925050503d805f8114610215576040519150601f19603f3d011682016040523d82523d5f602084013e61021a565b606091505b505090508061023c57604051630a12f52160e11b815260040160405180910390fd5b505050565b5f60208284031215610251575f5ffd5b5035919050565b8082018082111561027757634e487b7160e01b5f52601160045260245ffd5b9291505056fea26469706673582212205ecace5ce2da1f5bed7684d1ea0e4bc01f57c23740319df7192f9a0bce32ee1764736f6c634300081c0033","linkReferences":{}},"methodIdentifiers":{"deposit()":"d0e30db0","flashLoan(uint256)":"9ab603b9","withdraw()":"3ccfd60b"},"id":37}