{"abi":[{"type":"function","name":"deploy","inputs":[{"name":"_salt","type":"uint256","internalType":"uint256"},{"name":"_bytecode","type":"bytes","internalType":"bytes"}],"outputs":[{"name":"","type":"address","internalType":"address"}],"stateMutability":"nonpayable"},{"type":"function","name":"getImplementation","inputs":[],"outputs":[{"name":"implementation","type":"address","internalType":"address"}],"stateMutability":"view"},{"type":"function","name":"implementations","inputs":[{"name":"","type":"address","internalType":"address"}],"outputs":[{"name":"","type":"address","internalType":"address"}],"stateMutability":"view"},{"type":"function","name":"salt","inputs":[{"name":"","type":"uint256","internalType":"uint256"}],"outputs":[{"name":"","type":"address","internalType":"address"}],"stateMutability":"view"},{"type":"event","name":"Deployed","inputs":[{"name":"metaAddr","type":"address","indexed":false,"internalType":"address"}],"anonymous":false}],"bytecode":{"object":"0x6080604052348015600e575f5ffd5b506104218061001c5f395ff3fe608060405234801561000f575f5ffd5b506004361061004a575f3560e01c806361ff715f1461004e578063aaf10f421461007d578063ed36cbc51461009a578063f79eb32c146100c2575b5f5ffd5b61006161005c366004610304565b6100ea565b6040516001600160a01b03909116815260200160405180910390f35b335f908152602081905260409020546001600160a01b0316610061565b6100616100a836600461037b565b60016020525f90815260409020546001600160a01b031681565b6100616100d0366004610392565b5f602081905290815260409020546001600160a01b031681565b5f5f83838080601f0160208091040260200160405190810160405280939291908181526020018383808284375f92018290525060408051808201909152601d81527f5860208158601c335a63aaf10f428752fa158151803b80938091923cf300000060208201529495509250610164915088905083610276565b90505f83602001845180825ff06001600160a01b038581165f90815260208181526040822080546001600160a01b0319169385169390931790925587519295509350860191508a818385f592505050826001600160a01b0316816001600160a01b03161461022e5760405162461bcd60e51b815260206004820152602d60248201527f4661696c656420746f206465706c6f7920746865206e6577206d6574616d6f7260448201526c1c1a1a58c818dbdb9d1c9858dd609a1b606482015260840160405180910390fd5b6040516001600160a01b03821681527ff40fcec21964ffb566044d083b4073f29f7f7929110ea19e1b3ebe375d89055e9060200160405180910390a198975050505050505050565b5f30838360405160200161028a91906103bf565b604051602081830303815290604052805190602001206040516020016102e5939291906001600160f81b0319815260609390931b6bffffffffffffffffffffffff191660018401526015830191909152603582015260550190565b60408051601f1981840301815291905280516020909101209392505050565b5f5f5f60408486031215610316575f5ffd5b83359250602084013567ffffffffffffffff811115610333575f5ffd5b8401601f81018613610343575f5ffd5b803567ffffffffffffffff811115610359575f5ffd5b86602082840101111561036a575f5ffd5b939660209190910195509293505050565b5f6020828403121561038b575f5ffd5b5035919050565b5f602082840312156103a2575f5ffd5b81356001600160a01b03811681146103b8575f5ffd5b9392505050565b5f82515f5b818110156103de57602081860181015185830152016103c4565b505f92019182525091905056fea2646970667358221220205677c131bc0cf5d5e1965121f5be7d7b07895446a97b47aba2d59a0d1e649964736f6c634300081c0033","linkReferences":{}},"methodIdentifiers":{"deploy(uint256,bytes)":"61ff715f","getImplementation()":"aaf10f42","implementations(address)":"f79eb32c","salt(uint256)":"ed36cbc5"},"id":47}