{"abi":[{"type":"constructor","inputs":[{"name":"_setMe","type":"uint16","internalType":"uint16"},{"name":"_data","type":"bytes32[3]","internalType":"bytes32[3]"}],"stateMutability":"nonpayable"},{"type":"function","name":"isUnlock","inputs":[],"outputs":[{"name":"","type":"bool","internalType":"bool"}],"stateMutability":"view"},{"type":"function","name":"time","inputs":[],"outputs":[{"name":"","type":"uint256","internalType":"uint256"}],"stateMutability":"view"},{"type":"function","name":"unLock","inputs":[{"name":"_key","type":"bytes16","internalType":"bytes16"}],"outputs":[],"stateMutability":"nonpayable"}],"bytecode":{"object":"0x60806040524260018190556002805461ffff90921663010000000264ffffffffff1990921691909117620800a017905534801561003a575f5ffd5b5060405161029d38038061029d833981016040819052610059916100ef565b6002805461ffff60281b19166501000000000061ffff85160217905561008160038281610089565b505050610182565b82600381019282156100b7579160200282015b828111156100b757825182559160200191906001019061009c565b506100c39291506100c7565b5090565b5b808211156100c3575f81556001016100c8565b634e487b7160e01b5f52604160045260245ffd5b5f5f60808385031215610100575f5ffd5b825161ffff81168114610111575f5ffd5b9150603f83018413610121575f5ffd5b604051606081016001600160401b0381118282101715610143576101436100db565b604052806080850186811115610157575f5ffd5b602086015b8181101561017457805183526020928301920161015c565b505050809150509250929050565b61010e8061018f5f395ff3fe6080604052348015600e575f5ffd5b5060043610603a575f3560e01c806316ada54714603e578063c1550d12146059578063eb18134614606a575b5f5ffd5b604660015481565b6040519081526020015b60405180910390f35b6068606436600460ac565b6084565b005b5f5460759060ff1681565b60405190151581526020016050565b6004546001600160801b0319828116911614609d575f5ffd5b505f805460ff19166001179055565b5f6020828403121560bb575f5ffd5b81356001600160801b03198116811460d1575f5ffd5b939250505056fea2646970667358221220f329fe196e1ea02470c9f0b27aa8566314bd0aee9416121721fc0959f8a432e164736f6c634300081c0033","linkReferences":{}},"methodIdentifiers":{"isUnlock()":"eb181346","time()":"16ada547","unLock(bytes16)":"c1550d12"},"id":33}