{"abi":[{"type":"function","name":"floor","inputs":[],"outputs":[{"name":"","type":"uint256","internalType":"uint256"}],"stateMutability":"view"},{"type":"function","name":"goToFloor","inputs":[{"name":"_floor","type":"uint256","internalType":"uint256"}],"outputs":[],"stateMutability":"nonpayable"},{"type":"function","name":"top","inputs":[],"outputs":[{"name":"","type":"bool","internalType":"bool"}],"stateMutability":"view"}],"bytecode":{"object":"0x6080604052348015600e575f5ffd5b506101ea8061001c5f395ff3fe608060405234801561000f575f5ffd5b506004361061003f575f3560e01c80634069536314610043578063caea459d1461005f578063fe6dcdba14610074575b5f5ffd5b61004c60015481565b6040519081526020015b60405180910390f35b61007261006d366004610177565b610090565b005b5f546100809060ff1681565b6040519015158152602001610056565b6040516302f8cd6560e41b81526004810182905233908190632f8cd650906024016020604051808303815f875af11580156100cd573d5f5f3e3d5ffd5b505050506040513d601f19601f820116820180604052508101906100f1919061018e565b6101735760018290556040516302f8cd6560e41b8152600481018390526001600160a01b03821690632f8cd650906024016020604051808303815f875af115801561013e573d5f5f3e3d5ffd5b505050506040513d601f19601f82011682018060405250810190610162919061018e565b5f805460ff19169115159190911790555b5050565b5f60208284031215610187575f5ffd5b5035919050565b5f6020828403121561019e575f5ffd5b815180151581146101ad575f5ffd5b939250505056fea2646970667358221220ab4a837248012ae8ff33a88adcbc08d3fc193b4b78306ea22188d51ec5168fb964736f6c634300081c0033","linkReferences":{}},"methodIdentifiers":{"floor()":"40695363","goToFloor(uint256)":"caea459d","top()":"fe6dcdba"},"id":36}