{"abi":[{"type":"function","name":"allowance","inputs":[{"name":"","type":"address","internalType":"address"},{"name":"","type":"address","internalType":"address"}],"outputs":[{"name":"","type":"uint256","internalType":"uint256"}],"stateMutability":"view"},{"type":"function","name":"approve","inputs":[{"name":"spender","type":"address","internalType":"address"},{"name":"amount","type":"uint256","internalType":"uint256"}],"outputs":[],"stateMutability":"nonpayable"},{"type":"function","name":"balanceOf","inputs":[{"name":"","type":"address","internalType":"address"}],"outputs":[{"name":"","type":"uint256","internalType":"uint256"}],"stateMutability":"view"},{"type":"function","name":"deposit","inputs":[{"name":"to","type":"address","internalType":"address"}],"outputs":[],"stateMutability":"payable"},{"type":"function","name":"transfer","inputs":[{"name":"to","type":"address","internalType":"address"},{"name":"amount","type":"uint256","internalType":"uint256"}],"outputs":[],"stateMutability":"nonpayable"},{"type":"function","name":"transferFrom","inputs":[{"name":"from","type":"address","internalType":"address"},{"name":"to","type":"address","internalType":"address"},{"name":"amount","type":"uint256","internalType":"uint256"}],"outputs":[],"stateMutability":"nonpayable"},{"type":"function","name":"withdraw","inputs":[{"name":"amount","type":"uint256","internalType":"uint256"}],"outputs":[],"stateMutability":"nonpayable"},{"type":"function","name":"withdrawAll","inputs":[],"outputs":[],"stateMutability":"nonpayable"},{"type":"event","name":"Approval","inputs":[{"name":"owner","type":"address","indexed":true,"internalType":"address"},{"name":"spender","type":"address","indexed":true,"internalType":"address"},{"name":"amount","type":"uint256","indexed":false,"internalType":"uint256"}],"anonymous":false},{"type":"event","name":"Deposit","inputs":[{"name":"from","type":"address","indexed":true,"internalType":"address"},{"name":"amount","type":"uint256","indexed":false,"internalType":"uint256"}],"anonymous":false},{"type":"event","name":"Transfer","inputs":[{"name":"from","type":"address","indexed":true,"internalType":"address"},{"name":"to","type":"address","indexed":true,"internalType":"address"},{"name":"amount","type":"uint256","indexed":false,"internalType":"uint256"}],"anonymous":false},{"type":"event","name":"Withdraw","inputs":[{"name":"to","type":"address","indexed":true,"internalType":"address"},{"name":"amount","type":"uint256","indexed":false,"internalType":"uint256"}],"anonymous":false}],"bytecode":{"object":"0x6080604052348015600e575f5ffd5b506107af8061001c5f395ff3fe608060405260043610610079575f3560e01c8063853828b61161004c578063853828b614610119578063a9059cbb1461012d578063dd62ed3e1461014c578063f340fa0114610182575f5ffd5b8063095ea7b31461007d57806323b872dd1461009e5780632e1a7d4d146100bd57806370a08231146100dc575b5f5ffd5b348015610088575f5ffd5b5061009c610097366004610641565b610195565b005b3480156100a9575f5ffd5b5061009c6100b8366004610669565b6101f4565b3480156100c8575f5ffd5b5061009c6100d73660046106a3565b610382565b3480156100e7575f5ffd5b506101076100f63660046106ba565b5f6020819052908152604090205481565b60405190815260200160405180910390f35b348015610124575f5ffd5b5061009c610417565b348015610138575f5ffd5b5061009c610147366004610641565b610473565b348015610157575f5ffd5b506101076101663660046106da565b600160209081525f928352604080842090915290825290205481565b61009c6101903660046106ba565b61052d565b335f8181526001602090815260408083206001600160a01b03871680855290835292819020859055518481529192917f8c5be1e5ebec7d5bd14f71427d1e84f3dd0314c0f7b2291e5b200ac8c7c3b92591015b60405180910390a35050565b6001600160a01b0383165f908152602081905260409020548111156102345760405162461bcd60e51b815260040161022b9061070b565b60405180910390fd5b6001600160a01b0383165f90815260016020908152604080832033845290915290205481111561029f5760405162461bcd60e51b8152602060048201526016602482015275696e73756666696369656e7420616c6c6f77616e636560501b604482015260640161022b565b6001600160a01b0383165f90815260208190526040812080548392906102c690849061074d565b90915550506001600160a01b0382165f90815260208190526040812080548392906102f2908490610766565b90915550506001600160a01b0383165f9081526001602090815260408083203384529091528120805483929061032990849061074d565b92505081905550816001600160a01b0316836001600160a01b03167fddf252ad1be2c89b69c2b068fc378daa952ba7f163c4a11628f55a4df523b3ef8360405161037591815260200190565b60405180910390a3505050565b335f908152602081905260409020548111156103b05760405162461bcd60e51b815260040161022b9061070b565b335f90815260208190526040812080548392906103ce90849061074d565b909155506103de9050338261058b565b60405181815233907f884edad9ce6fa2440d8a54cc123490eb96d2768479d49ff9c7366125a9424364906020015b60405180910390a250565b335f81815260208190526040902054610430919061058b565b335f81815260208181526040808320839055519182527f884edad9ce6fa2440d8a54cc123490eb96d2768479d49ff9c7366125a9424364910160405180910390a2565b335f908152602081905260409020548111156104a15760405162461bcd60e51b815260040161022b9061070b565b335f90815260208190526040812080548392906104bf90849061074d565b90915550506001600160a01b0382165f90815260208190526040812080548392906104eb908490610766565b90915550506040518181526001600160a01b0383169033907fddf252ad1be2c89b69c2b068fc378daa952ba7f163c4a11628f55a4df523b3ef906020016101e8565b6001600160a01b0381165f9081526020819052604081208054349290610554908490610766565b909155505060405134815233907fe1fffcc4923d04b559f4d29a8bfc6cda04eb5b0d3c460751c2402c5c5cc9109c9060200161040c565b5f826001600160a01b0316826040515f6040518083038185875af1925050503d805f81146105d4576040519150601f19603f3d011682016040523d82523d5f602084013e6105d9565b606091505b50509050806106215760405162461bcd60e51b81526020600482015260146024820152733330b4b632b2103a379039b2b7321032ba3432b960611b604482015260640161022b565b505050565b80356001600160a01b038116811461063c575f5ffd5b919050565b5f5f60408385031215610652575f5ffd5b61065b83610626565b946020939093013593505050565b5f5f5f6060848603121561067b575f5ffd5b61068484610626565b925061069260208501610626565b929592945050506040919091013590565b5f602082840312156106b3575f5ffd5b5035919050565b5f602082840312156106ca575f5ffd5b6106d382610626565b9392505050565b5f5f604083850312156106eb575f5ffd5b6106f483610626565b915061070260208401610626565b90509250929050565b602080825260149082015273696e73756666696369656e742062616c616e636560601b604082015260600190565b634e487b7160e01b5f52601160045260245ffd5b8181038181111561076057610760610739565b92915050565b808201808211156107605761076061073956fea26469706673582212206f88af93469a8d4726a1662efd0e03eacd0a03bde0d206341dba4779e9d0ed3564736f6c634300081c0033","linkReferences":{}},"methodIdentifiers":{"allowance(address,address)":"dd62ed3e","approve(address,uint256)":"095ea7b3","balanceOf(address)":"70a08231","deposit(address)":"f340fa01","transfer(address,uint256)":"a9059cbb","transferFrom(address,address,uint256)":"23b872dd","withdraw(uint256)":"2e1a7d4d","withdrawAll()":"853828b6"},"id":46}