{"abi":[{"type":"constructor","inputs":[],"stateMutability":"payable"},{"type":"function","name":"spin","inputs":[{"name":"bet","type":"uint256","internalType":"uint256"}],"outputs":[],"stateMutability":"payable"}],"bytecode":{"object":"0x608060405260015f5534662386f26fc100001461001a575f5ffd5b61002561010061002c565b5f55610114565b5f808261005a7f028f5c28f5c28f5c24e1b616c8198b9d915c614771353cab0163c59d68f5c28f60646100aa565b61006491906100db565b90505f5f544361007491906100ee565b905080408461008384836100db565b61008d9190610101565b95945050505050565b634e487b7160e01b5f52601160045260245ffd5b80820281158282048414176100c1576100c1610096565b92915050565b634e487b7160e01b5f52601260045260245ffd5b5f826100e9576100e96100c7565b500490565b818103818111156100c1576100c1610096565b5f8261010f5761010f6100c7565b500690565b6101ce806101215f395ff3fe60806040526004361061001d575f3560e01c8063a5b6ea8f14610021575b5f5ffd5b61003461002f366004610103565b610036565b005b662386f26fc10000341015610049575f5ffd5b5f6100546064610099565b9050610061610100610099565b5f558181036100955760405133904780156108fc02915f818181858888f19350505050158015610093573d5f5f3e3d5ffd5b505b5050565b5f80826100c77f028f5c28f5c28f5c24e1b616c8198b9d915c614771353cab0163c59d68f5c28f606461012e565b6100d1919061015f565b90505f5f54436100e19190610172565b90508040846100f0848361015f565b6100fa9190610185565b95945050505050565b5f60208284031215610113575f5ffd5b5035919050565b634e487b7160e01b5f52601160045260245ffd5b80820281158282048414176101455761014561011a565b92915050565b634e487b7160e01b5f52601260045260245ffd5b5f8261016d5761016d61014b565b500490565b818103818111156101455761014561011a565b5f826101935761019361014b565b50069056fea26469706673582212207a77b9279738350d7f97a09b7ce04c157f970c43d808c4fdf2b9de7880d07c5764736f6c634300081c0033","linkReferences":{}},"methodIdentifiers":{"spin(uint256)":"a5b6ea8f"},"id":31}