{"abi":[{"type":"constructor","inputs":[],"stateMutability":"payable"},{"type":"function","name":"guess","inputs":[],"outputs":[{"name":"","type":"uint8","internalType":"uint8"}],"stateMutability":"view"},{"type":"function","name":"player","inputs":[],"outputs":[{"name":"","type":"address","internalType":"address"}],"stateMutability":"view"},{"type":"function","name":"setGuess","inputs":[{"name":"n","type":"uint8","internalType":"uint8"}],"outputs":[],"stateMutability":"payable"},{"type":"function","name":"solution","inputs":[],"outputs":[],"stateMutability":"nonpayable"}],"bytecode":{"object":"0x608060405234662386f26fc10000146015575f5ffd5b61031f806100225f395ff3fe60806040526004361061003e575f3560e01c806348db5f89146100425780634fb602511461007d57806356e1479a14610093578063a28b749a146100a6575b5f5ffd5b34801561004d575f5ffd5b505f54610060906001600160a01b031681565b6040516001600160a01b0390911681526020015b60405180910390f35b348015610088575f5ffd5b506100916100d7565b005b6100916100a1366004610263565b610209565b3480156100b1575f5ffd5b505f546100c590600160a01b900460ff1681565b60405160ff9091168152602001610074565b5f546001600160a01b031633146101225760405162461bcd60e51b815260206004820152600a6024820152692bb937b733903ab9b2b960b11b60448201526064015b60405180910390fd5b60015443116101735760405162461bcd60e51b815260206004820152601a60248201527f4e65656420746f2063616c6c206174206e65787420626c6f636b0000000000006044820152606401610119565b5f600a61018160014361029e565b60408051914060208301524290820152606001604051602081830303815290604052805190602001205f1c6101b691906102b7565b5f80546001600160a01b03191690819055909150600160a01b900460ff168190036102065760405133904780156108fc02915f818181858888f19350505050158015610204573d5f5f3e3d5ffd5b505b50565b5f546001600160a01b03161561021d575f5ffd5b34662386f26fc100001461022f575f5ffd5b5f80546001600160a81b0319163360ff60a01b191617600160a01b60ff84160217905561025d4360016102d6565b60015550565b5f60208284031215610273575f5ffd5b813560ff81168114610283575f5ffd5b9392505050565b634e487b7160e01b5f52601160045260245ffd5b818103818111156102b1576102b161028a565b92915050565b5f826102d157634e487b7160e01b5f52601260045260245ffd5b500690565b808201808211156102b1576102b161028a56fea26469706673582212203b71f50f65c7712a1eeb4fcbde7270aa9d4118519851ce257db09e76d0592ce464736f6c634300081c0033","linkReferences":{}},"methodIdentifiers":{"guess()":"a28b749a","player()":"48db5f89","setGuess(uint8)":"56e1479a","solution()":"4fb60251"},"id":35}