{"abi":[{"type":"constructor","inputs":[],"stateMutability":"payable"},{"type":"function","name":"spin","inputs":[{"name":"bet","type":"uint256","internalType":"uint256"}],"outputs":[],"stateMutability":"payable"}],"bytecode":{"object":"0x608060405234662386f26fc10000146015575f5ffd5b6101bf806100225f395ff3fe60806040526004361061001d575f3560e01c8063a5b6ea8f14610021575b5f5ffd5b61003461002f3660046100f4565b610036565b005b662386f26fc10000341015610049575f5ffd5b5f610054606461008c565b90508181036100885760405133904780156108fc02915f818181858888f19350505050158015610086573d5f5f3e3d5ffd5b505b5050565b5f80826100ba7f028f5c28f5c28f5c28f5c28f5c28f5c28f5c28f5c28f5c28f5c28f5c28f5c28f606461011f565b6100c49190610150565b90505f6100d2600143610163565b90508040846100e18483610150565b6100eb9190610176565b95945050505050565b5f60208284031215610104575f5ffd5b5035919050565b634e487b7160e01b5f52601160045260245ffd5b80820281158282048414176101365761013661010b565b92915050565b634e487b7160e01b5f52601260045260245ffd5b5f8261015e5761015e61013c565b500490565b818103818111156101365761013661010b565b5f826101845761018461013c565b50069056fea264697066735822122035ba8d9606c63ae02130fbd6ad122558e1466e6f8fff252866e2b73c0024ce8764736f6c634300081c0033","linkReferences":{}},"methodIdentifiers":{"spin(uint256)":"a5b6ea8f"},"id":30}