{"abi":[{"type":"constructor","inputs":[],"stateMutability":"payable"},{"type":"function","name":"games","inputs":[{"name":"","type":"uint256","internalType":"uint256"}],"outputs":[{"name":"player","type":"address","internalType":"address"},{"name":"id","type":"uint256","internalType":"uint256"},{"name":"bet","type":"uint256","internalType":"uint256"},{"name":"blockNumber","type":"uint256","internalType":"uint256"}],"stateMutability":"view"},{"type":"function","name":"spin","inputs":[{"name":"_bet","type":"uint256","internalType":"uint256"}],"outputs":[],"stateMutability":"payable"}],"bytecode":{"object":"0x608060405234662386f26fc10000146015575f5ffd5b61037a806100225f395ff3fe608060405260043610610028575f3560e01c8063117a5b901461002c578063a5b6ea8f14610079575b5f5ffd5b348015610037575f5ffd5b5061004b6100463660046102d5565b61008e565b604080516001600160a01b039095168552602085019390935291830152606082015260800160405180910390f35b61008c6100873660046102d5565b6100cf565b005b5f818154811061009c575f80fd5b5f91825260209091206004909102018054600182015460028301546003909301546001600160a01b039092169350919084565b662386f26fc100003410156100e2575f5ffd5b5f80546040805160808101825233815260208101838152918101858152436060830190815260018501865594805290517f290decd9548b62a8d60345a988386fc84ba6bc95484008f6362f93160ef3e5636004850290810180546001600160a01b0319166001600160a01b039093169290921790915591517f290decd9548b62a8d60345a988386fc84ba6bc95484008f6362f93160ef3e564830155517f290decd9548b62a8d60345a988386fc84ba6bc95484008f6362f93160ef3e56582015591517f290decd9548b62a8d60345a988386fc84ba6bc95484008f6362f93160ef3e566909201919091558015610293575f6101df6001836102ec565b90505f61020f5f83815481106101f7576101f7610311565b905f5260205f20906004020160030154406064610297565b90505f828154811061022357610223610311565b905f5260205f209060040201600201548103610290575f828154811061024b5761024b610311565b5f91825260208220600490910201546040516001600160a01b03909116914780156108fc02929091818181858888f1935050505015801561028e573d5f5f3e3d5ffd5b505b50505b5050565b5f81836040516020016102ac91815260200190565b604051602081830303815290604052805190602001205f1c6102ce9190610325565b9392505050565b5f602082840312156102e5575f5ffd5b5035919050565b8181038181111561030b57634e487b7160e01b5f52601160045260245ffd5b92915050565b634e487b7160e01b5f52603260045260245ffd5b5f8261033f57634e487b7160e01b5f52601260045260245ffd5b50069056fea2646970667358221220669439f32156c6c7b5dabc9ff1a8412f9a785dd0f553e27421d651e43aa073dd64736f6c634300081c0033","linkReferences":{}},"methodIdentifiers":{"games(uint256)":"117a5b90","spin(uint256)":"a5b6ea8f"},"id":32}