{"abi":[{"type":"constructor","inputs":[{"name":"_owner","type":"address","internalType":"address"}],"stateMutability":"payable"},{"type":"function","name":"changeDAOowner","inputs":[{"name":"_v","type":"uint8","internalType":"uint8"},{"name":"_r","type":"bytes32","internalType":"bytes32"},{"name":"_s","type":"bytes32","internalType":"bytes32"},{"name":"_salt","type":"bytes32","internalType":"bytes32"},{"name":"_newOwner","type":"address","internalType":"address"}],"outputs":[],"stateMutability":"nonpayable"},{"type":"function","name":"contribute","inputs":[],"outputs":[],"stateMutability":"payable"},{"type":"function","name":"owner","inputs":[],"outputs":[{"name":"","type":"address","internalType":"address"}],"stateMutability":"view"},{"type":"function","name":"ownerContribute","inputs":[{"name":"_v","type":"uint8","internalType":"uint8"},{"name":"_r","type":"bytes32","internalType":"bytes32"},{"name":"_s","type":"bytes32","internalType":"bytes32"},{"name":"_hash","type":"bytes32","internalType":"bytes32"}],"outputs":[],"stateMutability":"payable"},{"type":"function","name":"register","inputs":[],"outputs":[],"stateMutability":"nonpayable"},{"type":"function","name":"setBorder","inputs":[{"name":"_v","type":"uint8","internalType":"uint8"},{"name":"_r","type":"bytes32","internalType":"bytes32"},{"name":"_s","type":"bytes32","internalType":"bytes32"},{"name":"_salt","type":"bytes32","internalType":"bytes32"},{"name":"_newBorder","type":"uint256","internalType":"uint256"}],"outputs":[],"stateMutability":"nonpayable"},{"type":"function","name":"used","inputs":[{"name":"","type":"bytes32","internalType":"bytes32"}],"outputs":[{"name":"","type":"bool","internalType":"bool"}],"stateMutability":"view"},{"type":"function","name":"voteForYourself","inputs":[],"outputs":[],"stateMutability":"nonpayable"},{"type":"function","name":"withdraw","inputs":[],"outputs":[],"stateMutability":"nonpayable"},{"type":"event","name":"Contributed","inputs":[{"name":"contributer","type":"address","indexed":false,"internalType":"address"},{"name":"amount","type":"uint256","indexed":false,"internalType":"uint256"}],"anonymous":false},{"type":"event","name":"NewBorder","inputs":[{"name":"value","type":"uint256","indexed":false,"internalType":"uint256"}],"anonymous":false},{"type":"event","name":"OwnerChanged","inputs":[{"name":"newOwner","type":"address","indexed":false,"internalType":"address"}],"anonymous":false},{"type":"event","name":"Signed","inputs":[{"name":"v","type":"uint8","indexed":false,"internalType":"uint8"},{"name":"r","type":"bytes32","indexed":false,"internalType":"bytes32"},{"name":"s","type":"bytes32","indexed":false,"internalType":"bytes32"},{"name":"hash","type":"bytes32","indexed":false,"internalType":"bytes32"}],"anonymous":false}],"bytecode":{"object":"0x6080604052600a6004556040516107f93803806107f98339810160408190526025916055565b5f80546001600160a01b0319166001600160a01b03831617905534662386f26fc10000146050575f5ffd5b506080565b5f602082840312156064575f5ffd5b81516001600160a01b03811681146079575f5ffd5b9392505050565b61076c8061008d5f395ff3fe608060405260043610610084575f3560e01c80638da5cb5b116100575780638da5cb5b146100e4578063b07c411f1461011f578063be7bfb2b1461015d578063c17bc13c1461017c578063d7bb99ba14610190575f5ffd5b80631aa3a008146100885780633138e5f41461009e5780633ccfd60b146100bd5780636c5e46f3146100d1575b5f5ffd5b348015610093575f5ffd5b5061009c610198565b005b3480156100a9575f5ffd5b5061009c6100b83660046105f1565b6101db565b3480156100c8575f5ffd5b5061009c61025c565b61009c6100df36600461062f565b610296565b3480156100ef575f5ffd5b505f54610102906001600160a01b031681565b6040516001600160a01b0390911681526020015b60405180910390f35b34801561012a575f5ffd5b5061014d610139366004610665565b60016020525f908152604090205460ff1681565b6040519015158152602001610116565b348015610168575f5ffd5b5061009c61017736600461067c565b6102f7565b348015610187575f5ffd5b5061009c61039c565b61009c61045f565b335f90815260056020526040902054156101b0575f5ffd5b600160025f8282546101c291906106d7565b9091555050600254335f90815260056020526040902055565b6040805160026020820152908101829052606081018390525f9060800160405160208183030381529060405280519060200120905061021c868686846104de565b60048290556040518281527f9c915bbf63f80e4a601e676ab4dd4a60e0a751254dfcb496b0260e0ca03523cf9060200160405180910390a1505050505050565b5f80546040516001600160a01b03909116914780156108fc02929091818181858888f19350505050158015610293573d5f5f3e3d5ffd5b50565b6102a2848484846104de565b5f34116102ad575f5ffd5b5f54604080516001600160a01b0390921682523460208301527f62722348256371b5147820d6cad90c40fd2da1ccee18c3ed52c0bca5a61dbbab910160405180910390a150505050565b604080516001602082015247918101829052606081018490525f90608001604051602081830303815290604052805190602001209050610339878787846104de565b6040516001600160a01b03841681527fa2ea9883a321a3e97b8266c2b078bfeec6d50c711ed71f874a90d500ae2eaf369060200160405180910390a150505f80546001600160a01b0319166001600160a01b039290921691909117905550505050565b335f9081526005602052604081205490036103b5575f5ffd5b600454335f908152600560205260409020546103d19190610710565b1580156103f957506003546103e79060016106d7565b6004546002546103f79190610723565b145b610401575f5ffd5b6040513381527fa2ea9883a321a3e97b8266c2b078bfeec6d50c711ed71f874a90d500ae2eaf369060200160405180910390a15f80546001600160a01b0319163317815560038054600192906104589084906106d7565b9091555050565b335f908152600560205260408120549003610478575f5ffd5b4734106104a457335f90815260056020526040812080546001929061049e9084906106d7565b90915550505b604080513381523460208201527f62722348256371b5147820d6cad90c40fd2da1ccee18c3ed52c0bca5a61dbbab910160405180910390a1565b5f8181526001602052604090205460ff16156104f8575f5ffd5b604080515f8082526020820180845284905260ff871692820192909252606081018590526080810184905260019060a0016020604051602081039080840390855afa158015610549573d5f5f3e3d5ffd5b5050604051601f1901515f549092506001600160a01b038084169116149050610570575f5ffd5b5f82815260016020818152604092839020805460ff1916909217909155815160ff88168152908101869052908101849052606081018390527fe577c81a6d867a6836932be701149265f89e3b4287362271b173deaf624c89a59060800160405180910390a15050505050565b803560ff811681146105ec575f5ffd5b919050565b5f5f5f5f5f60a08688031215610605575f5ffd5b61060e866105dc565b97602087013597506040870135966060810135965060800135945092505050565b5f5f5f5f60808587031215610642575f5ffd5b61064b856105dc565b966020860135965060408601359560600135945092505050565b5f60208284031215610675575f5ffd5b5035919050565b5f5f5f5f5f60a08688031215610690575f5ffd5b610699866105dc565b945060208601359350604086013592506060860135915060808601356001600160a01b03811681146106c9575f5ffd5b809150509295509295909350565b808201808211156106f657634e487b7160e01b5f52601160045260245ffd5b92915050565b634e487b7160e01b5f52601260045260245ffd5b5f8261071e5761071e6106fc565b500690565b5f82610731576107316106fc565b50049056fea26469706673582212208bc88252c82bb7a2483aaeaaba3838c70edf5415308e5a9b467ddad4cf4c379664736f6c634300081c0033","linkReferences":{}},"methodIdentifiers":{"changeDAOowner(uint8,bytes32,bytes32,bytes32,address)":"be7bfb2b","contribute()":"d7bb99ba","owner()":"8da5cb5b","ownerContribute(uint8,bytes32,bytes32,bytes32)":"6c5e46f3","register()":"1aa3a008","setBorder(uint8,bytes32,bytes32,bytes32,uint256)":"3138e5f4","used(bytes32)":"b07c411f","voteForYourself()":"c17bc13c","withdraw()":"3ccfd60b"},"id":40}