{"abi":[{"type":"constructor","inputs":[{"name":"_owner","type":"address","internalType":"address"}],"stateMutability":"nonpayable"},{"type":"function","name":"owner","inputs":[],"outputs":[{"name":"","type":"address","internalType":"address"}],"stateMutability":"view"},{"type":"function","name":"used","inputs":[{"name":"","type":"bytes32","internalType":"bytes32"}],"outputs":[{"name":"","type":"bool","internalType":"bool"}],"stateMutability":"view"},{"type":"event","name":"Signed","inputs":[{"name":"v","type":"uint8","indexed":false,"internalType":"uint8"},{"name":"r","type":"bytes32","indexed":false,"internalType":"bytes32"},{"name":"s","type":"bytes32","indexed":false,"internalType":"bytes32"},{"name":"hash","type":"bytes32","indexed":false,"internalType":"bytes32"}],"anonymous":false}],"bytecode":{"object":"0x6080604052348015600e575f5ffd5b50604051610161380380610161833981016040819052602b91604e565b5f80546001600160a01b0319166001600160a01b03929092169190911790556079565b5f60208284031215605d575f5ffd5b81516001600160a01b03811681146072575f5ffd5b9392505050565b60dc806100855f395ff3fe6080604052348015600e575f5ffd5b50600436106030575f3560e01c80638da5cb5b146034578063b07c411f146062575b5f5ffd5b5f546045906001600160a01b031681565b6040516001600160a01b0390911681526020015b60405180910390f35b6081606d3660046090565b60016020525f908152604090205460ff1681565b60405190151581526020016059565b5f60208284031215609f575f5ffd5b503591905056fea2646970667358221220067a5d23860badc8ca57543d7a4a14a7331d65da1232266a94617bb138a0c98364736f6c634300081c0033","linkReferences":{}},"methodIdentifiers":{"owner()":"8da5cb5b","used(bytes32)":"b07c411f"},"id":43}