{"abi":[{"type":"function","name":"anchor","inputs":[],"outputs":[{"name":"","type":"address","internalType":"address"}],"stateMutability":"view"},{"type":"function","name":"blackJackIsHauled","inputs":[],"outputs":[{"name":"","type":"bool","internalType":"bool"}],"stateMutability":"view"},{"type":"function","name":"dropAnchor","inputs":[{"name":"blockNumber","type":"uint256","internalType":"uint256"}],"outputs":[{"name":"addr","type":"address","internalType":"address"}],"stateMutability":"nonpayable"},{"type":"function","name":"pullAnchor","inputs":[],"outputs":[],"stateMutability":"nonpayable"},{"type":"function","name":"sailAway","inputs":[],"outputs":[],"stateMutability":"nonpayable"}],"bytecode":{"object":"0x60806040525f80546001600160a81b0319169055348015601d575f5ffd5b506105048061002b5f395ff3fe608060405234801561000f575f5ffd5b5060043610610055575f3560e01c8063960a62da14610059578063a4a67aae14610081578063b084ffa11461008b578063d3fb73b414610093578063eef03274146100bd575b5f5ffd5b5f5461006c90600160a01b900460ff1681565b60405190151581526020015b60405180910390f35b6100896100d0565b005b610089610110565b5f546100a5906001600160a01b031681565b6040516001600160a01b039091168152602001610078565b6100a56100cb3660046103f7565b61017f565b5f546001600160a01b03166100e3575f5ffd5b5f546001600160a01b0316803b80156100fa575f5ffd5b50505f805460ff60a01b1916600160a01b179055565b5f546001600160a01b0316610123575f5ffd5b5f80546040516001600160a01b03909116908281818181865af19150503d805f811461016a576040519150601f19603f3d011682016040523d82523d5f602084013e61016f565b606091505b505090508061017c575f5ffd5b50565b5f61018d43620186a0610422565b82116101ea5760405162461bcd60e51b815260206004820152602260248201527f54686520616e63686f72206973207374696c6c2061742074686520626f74746f6044820152616d2160f01b606482015260840160405180910390fd5b6101f26103d8565b616300815260208101839052604360408201526010606082015260586080820152605760a0820152603360c082015260ff60e08201525f610232826102e0565b905061023c6103d8565b5f808252606a60208301526040820183905261600060608301526052608083015261600b60a083015261601560c083015260f360e083015261027d826102e0565b90505f6102898261033e565b90505f61029782602061044f565b9050604051838152828282015ff09750506001600160a01b0387166102ba575f5ffd5b50505f80546001600160a01b0319166001600160a01b0387161790555092949350505050565b5f60085b8015610338576102f38261033e565b6102fe906008610462565b8361030a60018461044f565b6008811061031a5761031a61043b565b6020020151901b82189150808061033090610479565b9150506102e4565b50919050565b6040805160208082528183019092525f918291906020820181803683375050506020810184905290505f5b81518163ffffffff1610156103cf57818163ffffffff16815181106103905761039061043b565b01602001516001600160f81b031916156103bd576103af81602061048e565b63ffffffff16949350505050565b806103c7816104aa565b915050610369565b505f9392505050565b6040518061010001604052806008906020820280368337509192915050565b5f60208284031215610407575f5ffd5b5035919050565b634e487b7160e01b5f52601160045260245ffd5b808201808211156104355761043561040e565b92915050565b634e487b7160e01b5f52603260045260245ffd5b818103818111156104355761043561040e565b80820281158282048414176104355761043561040e565b5f816104875761048761040e565b505f190190565b63ffffffff82811682821603908111156104355761043561040e565b5f63ffffffff821663ffffffff81036104c5576104c561040e565b6001019291505056fea264697066735822122078e5e63bf7101f891ce7d4791b20af4e17c1f94f325ca3d9ceacd09669db7c3e64736f6c634300081c0033","linkReferences":{}},"methodIdentifiers":{"anchor()":"d3fb73b4","blackJackIsHauled()":"960a62da","dropAnchor(uint256)":"eef03274","pullAnchor()":"b084ffa1","sailAway()":"a4a67aae"},"id":50}