{"abi":[{"type":"constructor","inputs":[{"name":"_token","type":"address","internalType":"address"},{"name":"_owner","type":"address","internalType":"address"}],"stateMutability":"nonpayable"},{"type":"function","name":"deposit","inputs":[{"name":"_amount","type":"uint256","internalType":"uint256"}],"outputs":[],"stateMutability":"nonpayable"},{"type":"function","name":"owner","inputs":[],"outputs":[{"name":"","type":"address","internalType":"address"}],"stateMutability":"view"},{"type":"function","name":"shares","inputs":[{"name":"","type":"address","internalType":"address"}],"outputs":[{"name":"","type":"uint256","internalType":"uint256"}],"stateMutability":"view"},{"type":"function","name":"token","inputs":[],"outputs":[{"name":"","type":"address","internalType":"contract MintableERC20"}],"stateMutability":"view"},{"type":"function","name":"totalShares","inputs":[],"outputs":[{"name":"","type":"uint256","internalType":"uint256"}],"stateMutability":"view"},{"type":"function","name":"withdraw","inputs":[{"name":"_sharesAmount","type":"uint256","internalType":"uint256"}],"outputs":[],"stateMutability":"nonpayable"}],"bytecode":{"object":"0x6080604052348015600e575f5ffd5b50604051610672380380610672833981016040819052602b916077565b5f80546001600160a01b039283166001600160a01b0319918216179091556001805493909216921691909117905560a3565b80516001600160a01b03811681146072575f5ffd5b919050565b5f5f604083850312156087575f5ffd5b608e83605d565b9150609a60208401605d565b90509250929050565b6105c2806100b05f395ff3fe608060405234801561000f575f5ffd5b5060043610610060575f3560e01c80632e1a7d4d146100645780633a98ef39146100795780638da5cb5b14610095578063b6b55f25146100bf578063ce7c2ac2146100d2578063fc0c546a146100f1575b5f5ffd5b610077610072366004610458565b610104565b005b61008260035481565b6040519081526020015b60405180910390f35b5f546100a7906001600160a01b031681565b6040516001600160a01b03909116815260200161008c565b6100776100cd366004610458565b6102e8565b6100826100e036600461046f565b60026020525f908152604090205481565b6001546100a7906001600160a01b031681565b5f811161012c5760405162461bcd60e51b81526004016101239061049c565b60405180910390fd5b6001546040516370a0823160e01b81523060048201525f916001600160a01b0316906370a0823190602401602060405180830381865afa158015610172573d5f5f3e3d5ffd5b505050506040513d601f19601f8201168201806040525081019061019691906104e0565b90505f60035482846101a8919061050b565b6101b29190610528565b335f908152600260205260408120805492935085929091906101d5908490610547565b925050819055508260035f8282546101ed9190610547565b90915550505f546001600160a01b03163303610270576001546040516370a0823160e01b81523060048201526001600160a01b03909116906370a0823190602401602060405180830381865afa158015610249573d5f5f3e3d5ffd5b505050506040513d601f19601f8201168201806040525081019061026d91906104e0565b90505b60015460405163a9059cbb60e01b8152336004820152602481018390526001600160a01b039091169063a9059cbb906044016020604051808303815f875af11580156102be573d5f5f3e3d5ffd5b505050506040513d601f19601f820116820180604052508101906102e2919061055a565b50505050565b5f81116103075760405162461bcd60e51b81526004016101239061049c565b6001546040516370a0823160e01b81523060048201525f916001600160a01b0316906370a0823190602401602060405180830381865afa15801561034d573d5f5f3e3d5ffd5b505050506040513d601f19601f8201168201806040525081019061037191906104e0565b6003549091505f81810361038657508261039e565b82610391838661050b565b61039b9190610528565b90505b335f90815260026020526040812080548392906103bc908490610579565b925050819055508060035f8282546103d49190610579565b90915550506001546040516323b872dd60e01b8152336004820152306024820152604481018690526001600160a01b03909116906323b872dd906064016020604051808303815f875af115801561042d573d5f5f3e3d5ffd5b505050506040513d601f19601f82011682018060405250810190610451919061055a565b5050505050565b5f60208284031215610468575f5ffd5b5035919050565b5f6020828403121561047f575f5ffd5b81356001600160a01b0381168114610495575f5ffd5b9392505050565b60208082526024908201527f5661756c743a20616d6f756e74206d75737420626520677265617465722074686040820152630616e20360e41b606082015260800190565b5f602082840312156104f0575f5ffd5b5051919050565b634e487b7160e01b5f52601160045260245ffd5b8082028115828204841417610522576105226104f7565b92915050565b5f8261054257634e487b7160e01b5f52601260045260245ffd5b500490565b81810381811115610522576105226104f7565b5f6020828403121561056a575f5ffd5b81518015158114610495575f5ffd5b80820180821115610522576105226104f756fea2646970667358221220acc63691a8860f915e8fed5b852c4b12f63f284a027e46768f41924374023e0664736f6c634300081c0033","linkReferences":{}},"methodIdentifiers":{"deposit(uint256)":"b6b55f25","owner()":"8da5cb5b","shares(address)":"ce7c2ac2","token()":"fc0c546a","totalShares()":"3a98ef39","withdraw(uint256)":"2e1a7d4d"},"id":38}