{"abi":[{"type":"constructor","inputs":[{"name":"_owner","type":"address","internalType":"address"}],"stateMutability":"payable"},{"type":"function","name":"changeDAOowner","inputs":[{"name":"_v","type":"uint8","internalType":"uint8"},{"name":"_r","type":"bytes32","internalType":"bytes32"},{"name":"_s","type":"bytes32","internalType":"bytes32"},{"name":"_salt","type":"bytes32","internalType":"bytes32"},{"name":"_newOwner","type":"address","internalType":"address"}],"outputs":[],"stateMutability":"nonpayable"},{"type":"function","name":"contribute","inputs":[{"name":"user","type":"address","internalType":"address"}],"outputs":[],"stateMutability":"payable"},{"type":"function","name":"owner","inputs":[],"outputs":[{"name":"","type":"address","internalType":"address"}],"stateMutability":"view"},{"type":"function","name":"ownerContribute","inputs":[{"name":"_v","type":"uint8","internalType":"uint8"},{"name":"_r","type":"bytes32","internalType":"bytes32"},{"name":"_s","type":"bytes32","internalType":"bytes32"},{"name":"_hash","type":"bytes32","internalType":"bytes32"}],"outputs":[],"stateMutability":"payable"},{"type":"function","name":"register","inputs":[],"outputs":[],"stateMutability":"nonpayable"},{"type":"function","name":"setBorder","inputs":[{"name":"_v","type":"uint8","internalType":"uint8"},{"name":"_r","type":"bytes32","internalType":"bytes32"},{"name":"_s","type":"bytes32","internalType":"bytes32"},{"name":"_salt","type":"bytes32","internalType":"bytes32"},{"name":"_newBorder","type":"uint256","internalType":"uint256"}],"outputs":[],"stateMutability":"nonpayable"},{"type":"function","name":"used","inputs":[{"name":"","type":"bytes32","internalType":"bytes32"}],"outputs":[{"name":"","type":"bool","internalType":"bool"}],"stateMutability":"view"},{"type":"function","name":"voteForYourself","inputs":[],"outputs":[],"stateMutability":"nonpayable"},{"type":"function","name":"withdraw","inputs":[],"outputs":[],"stateMutability":"nonpayable"},{"type":"event","name":"Contributed","inputs":[{"name":"contributer","type":"address","indexed":false,"internalType":"address"},{"name":"amount","type":"uint256","indexed":false,"internalType":"uint256"}],"anonymous":false},{"type":"event","name":"NewBorder","inputs":[{"name":"value","type":"uint256","indexed":false,"internalType":"uint256"}],"anonymous":false},{"type":"event","name":"OwnerChanged","inputs":[{"name":"newOwner","type":"address","indexed":false,"internalType":"address"}],"anonymous":false},{"type":"event","name":"Signed","inputs":[{"name":"v","type":"uint8","indexed":false,"internalType":"uint8"},{"name":"r","type":"bytes32","indexed":false,"internalType":"bytes32"},{"name":"s","type":"bytes32","indexed":false,"internalType":"bytes32"},{"name":"hash","type":"bytes32","indexed":false,"internalType":"bytes32"}],"anonymous":false}],"bytecode":{"object":"0x6080604052600a60025560405161074f38038061074f8339810160408190526025916048565b5f80546001600160a01b0319166001600160a01b03929092169190911790556073565b5f602082840312156057575f5ffd5b81516001600160a01b0381168114606c575f5ffd5b9392505050565b6106cf806100805f395ff3fe608060405260043610610084575f3560e01c806373e888fd1161005757806373e888fd146100e45780638da5cb5b146100f7578063b07c411f14610132578063be7bfb2b14610170578063c17bc13c1461018f575f5ffd5b80631aa3a008146100885780633138e5f41461009e5780633ccfd60b146100bd5780636c5e46f3146100d1575b5f5ffd5b348015610093575f5ffd5b5061009c6101a3565b005b3480156100a9575f5ffd5b5061009c6100b8366004610567565b6101d9565b3480156100c8575f5ffd5b5061009c61025a565b61009c6100df3660046105a5565b610294565b61009c6100f23660046105f1565b6102f5565b348015610102575f5ffd5b505f54610115906001600160a01b031681565b6040516001600160a01b0390911681526020015b60405180910390f35b34801561013d575f5ffd5b5061016061014c366004610611565b60016020525f908152604090205460ff1681565b6040519015158152602001610129565b34801561017b575f5ffd5b5061009c61018a366004610628565b610384565b34801561019a575f5ffd5b5061009c610429565b335f9081526003602052604090205460ff16156101be575f5ffd5b335f908152600360205260409020805460ff19166001179055565b6040805160026020820152908101829052606081018390525f9060800160405160208183030381529060405280519060200120905061021a86868684610454565b60028290556040518281527f9c915bbf63f80e4a601e676ab4dd4a60e0a751254dfcb496b0260e0ca03523cf9060200160405180910390a1505050505050565b5f80546040516001600160a01b03909116914780156108fc02929091818181858888f19350505050158015610291573d5f5f3e3d5ffd5b50565b6102a084848484610454565b5f34116102ab575f5ffd5b5f54604080516001600160a01b0390921682523460208301527f62722348256371b5147820d6cad90c40fd2da1ccee18c3ed52c0bca5a61dbbab910160405180910390a150505050565b335f9081526003602052604090205460ff161515600114610314575f5ffd5b473410610349576001600160a01b0381165f908152600460205260408120805460019290610343908490610674565b90915550505b604080513381523460208201527f62722348256371b5147820d6cad90c40fd2da1ccee18c3ed52c0bca5a61dbbab910160405180910390a150565b604080516001602082015247918101829052606081018490525f906080016040516020818303038152906040528051906020012090506103c687878784610454565b6040516001600160a01b03841681527fa2ea9883a321a3e97b8266c2b078bfeec6d50c711ed71f874a90d500ae2eaf369060200160405180910390a150505f80546001600160a01b0319166001600160a01b039290921691909117905550505050565b335f9081526003602052604090205460ff161515600114610448575f5ffd5b335f5260046020525f5ffd5b5f8181526001602052604090205460ff161561046e575f5ffd5b604080515f8082526020820180845284905260ff871692820192909252606081018590526080810184905260019060a0016020604051602081039080840390855afa1580156104bf573d5f5f3e3d5ffd5b5050604051601f1901515f549092506001600160a01b0380841691161490506104e6575f5ffd5b5f82815260016020818152604092839020805460ff1916909217909155815160ff88168152908101869052908101849052606081018390527fe577c81a6d867a6836932be701149265f89e3b4287362271b173deaf624c89a59060800160405180910390a15050505050565b803560ff81168114610562575f5ffd5b919050565b5f5f5f5f5f60a0868803121561057b575f5ffd5b61058486610552565b97602087013597506040870135966060810135965060800135945092505050565b5f5f5f5f608085870312156105b8575f5ffd5b6105c185610552565b966020860135965060408601359560600135945092505050565b80356001600160a01b0381168114610562575f5ffd5b5f60208284031215610601575f5ffd5b61060a826105db565b9392505050565b5f60208284031215610621575f5ffd5b5035919050565b5f5f5f5f5f60a0868803121561063c575f5ffd5b61064586610552565b9450602086013593506040860135925060608601359150610668608087016105db565b90509295509295909350565b8082018082111561069357634e487b7160e01b5f52601160045260245ffd5b9291505056fea26469706673582212205bd4b2800f29027e6c91bd9834ff0f62a4b7e00f01059bb4039d9458d59a975564736f6c634300081c0033","linkReferences":{}},"methodIdentifiers":{"changeDAOowner(uint8,bytes32,bytes32,bytes32,address)":"be7bfb2b","contribute(address)":"73e888fd","owner()":"8da5cb5b","ownerContribute(uint8,bytes32,bytes32,bytes32)":"6c5e46f3","register()":"1aa3a008","setBorder(uint8,bytes32,bytes32,bytes32,uint256)":"3138e5f4","used(bytes32)":"b07c411f","voteForYourself()":"c17bc13c","withdraw()":"3ccfd60b"},"id":44}