{"abi":[{"type":"constructor","inputs":[],"stateMutability":"payable"},{"type":"function","name":"hereIsMyNumber","inputs":[],"outputs":[],"stateMutability":"nonpayable"}],"bytecode":{"object":"0x608060405260b280600f5f395ff3fe6080604052348015600e575f5ffd5b50600436106026575f3560e01c806352e4db1414602a575b5f5ffd5b60306032565b005b33803b9063ffffffff8216156045575f5ffd5b333203604f575f5ffd5b60405133904780156108fc02915f818181858888f193505050501580156077573d5f5f3e3d5ffd5b50505056fea264697066735822122020c00509b084ca2c523302b45203f58bd297aa113eaf96f93e9a62aa914c31c664736f6c634300081c0033","linkReferences":{}},"methodIdentifiers":{"hereIsMyNumber()":"52e4db14"},"id":34}