{"abi":[{"type":"function","name":"balanceOf","inputs":[],"outputs":[{"name":"","type":"uint256","internalType":"uint256"}],"stateMutability":"view"},{"type":"function","name":"initializer","inputs":[{"name":"_token","type":"address","internalType":"contract IERC20"}],"outputs":[],"stateMutability":"nonpayable"},{"type":"function","name":"isInitialized","inputs":[],"outputs":[{"name":"","type":"bool","internalType":"bool"}],"stateMutability":"view"},{"type":"function","name":"kill","inputs":[],"outputs":[],"stateMutability":"nonpayable"},{"type":"function","name":"token","inputs":[],"outputs":[{"name":"","type":"address","internalType":"contract IERC20"}],"stateMutability":"view"}],"bytecode":{"object":"0x6080604052348015600e575f5ffd5b506102008061001c5f395ff3fe608060405234801561000f575f5ffd5b5060043610610055575f3560e01c8063392e53cd1461005957806341c0e1b514610081578063722713f714610089578063a33920af1461009f578063fc0c546a146100b2575b5f5ffd5b5f5461006c90600160a01b900460ff1681565b60405190151581526020015b60405180910390f35b61008733ff5b005b6100916100dc565b604051908152602001610078565b6100876100ad366004610186565b61014b565b5f546100c4906001600160a01b031681565b6040516001600160a01b039091168152602001610078565b5f80546040516370a0823160e01b81523060048201526001600160a01b03909116906370a0823190602401602060405180830381865afa158015610122573d5f5f3e3d5ffd5b505050506040513d601f19601f8201168201806040525081019061014691906101b3565b905090565b5f54600160a01b900460ff1615610160575f5ffd5b5f80546001600160a81b0319166001600160a01b0390921691909117600160a01b179055565b5f60208284031215610196575f5ffd5b81356001600160a01b03811681146101ac575f5ffd5b9392505050565b5f602082840312156101c3575f5ffd5b505191905056fea26469706673582212202388b92b94764fc738d7ab826cc66ce4c6f7d5b44debef2fcc76f34ac8182aaa64736f6c634300081c0033","linkReferences":{}},"methodIdentifiers":{"balanceOf()":"722713f7","initializer(address)":"a33920af","isInitialized()":"392e53cd","kill()":"41c0e1b5","token()":"fc0c546a"},"id":49}